:100000003FC159C1E7C357C156C155C154C153C1BE
:1000100052C151C150C14FC14EC14DC14CC1BDC1F2
:10002000BEC1BDC1BCC1BBC1BAC1B9C1B8C1B7C1F4
:10003000B6C1B5C1B0C1B3C1B2C1B1C1B0C1A7C130
:10004000AEC1ADC1ACC1ABC1AAC1A9C1A8C1A7C154
:10005000A6C1A5C1A4C1A3C1A2C1A1C1A0C19FC184
:100060009EC19DC19CC19BC19AC199C198C197C1B4
:1000700096C195C194C193C192C191C190C18FC1E4
:100080008EC18DC18CC18BC18AC189C188C187C114
:1000900080C185C184C183C182C16DC16EC17FC170
:1000A0007EC17DC17CC17BC17AC179C178C177C174
:1000B00076C175C174C173C172C171C170C153C1C0
:1000C0006EC16DC16CC15BC16AC169C168C167C1E4
:1000D00066C165C164C163C162C161C162C15FC102
:1000E0005EC15DC15CC15BC15AC159C158C157C134
:1000F00056C155C154C153C138C151C150C14FC17E
:100100004EC137C14CC14BC14AC149C148C147C1A9
:100110003CC145C144C12BC142C135C132C14C4F64
:1001200057204241540A004143200025342D3230EB
:100130006D4100487A004155583A20004143200063
:1001400044432000487A006442004F686D00442513
:10015000004D41494E3A200042454550200044455B
:100160004C54412000484F4C44200052454320004D
:10017000435245535420004D415820004D494E20D4
:100180000041564720004155544F2000524157200E
:10019000444154413A200054494D454F555420455F
:1001A00052524F520A0052202D20746F67676C65BF
:1001B000207261772064617461206F75747075744A
:1001C0000A0044202D2073656E6420612073696EDF
:1001D000676C652072656164696E670A0053202D43
:1001E0002073746F70206175746F73656E640A009C
:1001F0004F202D20312073616D706C652070657209
:10020000207365636F6E640A0046202D20352073CD
:10021000616D706C657320706572207365636F6EBD
:10022000640A00417661696C61626C6520636F6D80
:100230006D616E64733A0A004272796D656E2038A2
:1002400036372F38363920696E746572666163659A
:10025000206361626C650A666F72206D6F72652043
:10026000696E666F2C2073656520656D62656462DA
:100270006C6F672E65752F3F703D3437350A00006F
:1002800011241FBECFE5D1E0DEBFCDBF10E0A0E658
:10029000B0E0E6E1F9E002C005900D92A236B107A8
:1002A000D9F720E0A2E6B0E001C01D92A737B2075F
:1002B000E1F7D0D12EC3A4CE20E030E080E061E0B1
:1002C00070E0C09AE7ECF0E03197F1F700C0000071
:1002D000C098B29B08C0AB01022E02C0440F551F4C
:1002E0000A94E2F7842BE7ECF0E03197F1F700C0D5
:1002F00000002F5F3F4F2830310519F708950F9305
:100300001F93CF93DF93C09A8FE19EE40197F1F79B
:1003100000C00000C098B29904C014C0815011F40C
:1003200016C08EEFEFE9FFE03197F1F700C0000053
:10033000B299F4CF07C0C0DF8993C017D107D9F7AE
:1003400081E005C0C2E6D0E006E710E0F4CFDF911F
:10035000CF911F910F910895E82FF0E0F595E79563
:10036000E15FFF4F099481E0089582E0089583E002
:10037000089584E0089585E0089586E0089587E073
:10038000089588E0089589E0089584E3089589E355
:1003900008958FE308958CE1089580EF08958FE02C
:1003A000089580E00895FF920F931F93CF93DF93FA
:1003B00080917600882399F08CE891E0E0D1C2E644
:1003C000D0E006E710E0899160E190E0EAD180E2B8
:1003D0009ED1C017D107B9F78AE099D135C1809174
:1003E000620080FF03C086E891E0C9D1809162007D
:1003F00088231CF481E891E0C2D18091620086FFDD
:1004000003C08CE791E0BBD18091620085FF03C0FF
:1004100087E791E0B4D18091620082FF03C080E75A
:1004200091E0ADD18091620081FF03C08BE691E045
:10043000A6D18091620083FF03C085E691E09FD141
:100440008091640080FF03C08EE591E098D1809197
:100450006B0080FF03C088E591E091D181E591E0D8
:100460008ED18091630088230CF0E2C08DE24FD1E1
:10047000DFC0F80181918F016FDF805D48D1F80105
:10048000808180FF08C08D2FC43008F08F2D882315
:1004900011F08EE23CD1CF5FC63059F780E237D100
:1004A00080916F0086FF02C08EE631D1809170008E
:1004B00083FF02C085E72BD18091700082FF02C0CC
:1004C0008DE625D18091700086FF02C08BE61FD19A
:1004D0008091700085FF02C08DE419D18091690080
:1004E00080FF02C086E513D180916F00882314F449
:1004F00081E40DD180916F0085FF02C086E407D1B1
:1005000080916F0084FF02C083E501D1809170006B
:1005100088231CF48EE491E032D18091700084FF36
:1005200003C08AE491E02BD18091700081FF03C069
:1005300087E491E024D18091700080FF03C084E4BF
:1005400091E01DD180E2E3D08091620084FF03C07E
:1005500080E491E014D18091630080FF03C08CE3BC
:1005600091E00DD186E391E00AD180916A0084FF89
:1005700065C08DE2CCD062C0F80181918F01ECDEC4
:10058000805DC5D0F801808180FF08C08D2FC33009
:1005900008F08F2D882311F08EE2B9D0CF5FC430E0
:1005A00059F780E2B4D080916A0081FF02C08DE6E5
:1005B000AED080916A0080FF02C085E7A8D080910C
:1005C0006F0081FF02C08BE6A2D080916F0080FF98
:1005D00002C08DE49CD080916F0082FF03C083E352
:1005E00091E0CDD080916F0083FF02C086E58FD06F
:1005F00080916A0082FF02C081E489D080916A0004
:1006000083FF03C08BE291E0BAD080E280D080917A
:100610006F0082FF03C087E291E0B1D08AE077D01B
:1006200080916A00882384F48EE191E0A8D00CC008
:1006300004E610E0C0E0D1E0F12C1BCF0BE610E0A7
:10064000C0E0D1E0F12C98CFDF91CF911F910F91B5
:10065000FF90089587B3836087BBBA984FD088E333
:1006600092E08DD083E292E08AD089E092E087D058
:1006700080EF91E084D08DED91E081D082EC91E02B
:100680007ED086EA91E07BD0C1E012E0D0E037DE98
:10069000882339F1C19A87DEC1988091600081304A
:1006A00049F42FEF85E796E1215080409040E1F733
:1006B00000C0000090916000209160008C2F92306B
:1006C00009F08D2F811106C08C2F233009F08D2F5A
:1006D0008823E9F210936000809160008230E1F39A
:1006E000D6CF87E991E04BD02FEF89E698E12150F2
:1006F00080409040E1F700C00000C9CFBC9AC49A86
:10070000BB98AB9A8BB780628BBF78940895C498DE
:10071000EFECF0E03197F1F700C00000C49A20E060
:1007200030E090E0AC01022E02C0559547950A9446
:10073000E2F740FF02C0C49A01C0C498EFECF0E0B9
:100740003197F1F700C000002F5F3F4F283031058F
:1007500049F7C49A8FEC90E00197F1F700C00000D0
:100760000895CF93DF93EC018881882329F02196A7
:10077000CEDF89918111FCCFDF91CF910895CF9386
:10078000DF93EC01FC018491882341F0FE01219666
:100790008491BDDFFE0184918111F8CFDF91CF916B
:1007A0000895CF93DF9300D000D000D0CDB7DEB74F
:1007B000462F50E0BE016F5F7F4F6ED0CE01019695
:1007C000D0DF26960FB6F894DEBF0FBECDBFDF9107
:1007D000CF9108951F920F920FB60F9211242F936D
:1007E0004F935F936F937F938F939F93EF93FF93B9
:1007F000B39944C087E391E00197F1F700C000008E
:1008000080E090E020E061E070E0B39B08C0AB01C5
:10081000082E02C0440F551F0A94E2F7242BEFEC78
:10082000F0E03197F1F700C00000019688309105A3
:1008300061F72F34A9F028F42434D1F0263469F07C
:100840001AC0223519F0233579F015C09091760041
:1008500081E08927809376000EC0109260000BC063
:1008600081E08093600007C082E08093600003C055
:1008700083E0809360008AB780648ABFFF91EF9124
:100880009F918F917F916F915F914F912F910F90D9
:100890000FBE0F901F9018954532510518F4423045
:1008A00008F004C0FB011082CB010895BB274A3039
:1008B00031F4992322F4BDE2909581959F4F01C0B8
:1008C000BB27FB015527AA27880F991FAA1FA4172A
:1008D00010F0A41B83955051B9F7A05DAA3308F01E
:1008E000A95DA193009779F7B111B1931192CB0152
:1008F00000C0DC01FC01672F71917723E1F732978B
:1009000004C07C916D9370836291AE17BF07C8F3EA
:060910000895F894FFCFEA
:020916000100DE
:00000001FF
