:1000000037C151C1DBC34FC14EC14DC14CC14BC102
:100010004AC149C148C147C146C145C144C1B5C132
:10002000B6C1B5C1B4C1B3C1B2C1B1C1B0C1AFC134
:10003000AEC1ADC1A8C1ABC1AAC1A9C1A8C19FC170
:10004000A6C1A5C1A4C1A3C1A2C1A1C1A0C19FC194
:100050009EC19DC19CC19BC19AC199C198C197C1C4
:1000600096C195C194C193C192C191C190C18FC1F4
:100070008EC18DC18CC18BC18AC189C188C187C124
:1000800086C185C184C183C182C181C180C17FC154
:1000900078C17DC17CC17BC17AC165C166C177C1B0
:1000A00076C175C174C173C172C171C170C16FC1B4
:1000B0006EC16DC16CC16BC16AC169C168C14BC100
:1000C00066C165C164C153C162C161C160C15FC124
:1000D0005EC15DC15CC15BC15AC159C15AC157C142
:1000E00056C155C154C153C152C151C150C14FC174
:1000F0004EC14DC14CC14BC130C149C148C147C1BE
:1001000046C12FC144C143C142C141C140C13FC1E9
:1001100034C13DC13CC123C13AC12DC12AC14C4F9C
:1001200057204241540A004143200025342D3230EB
:100130006D4100487A004155583A20004143200063
:1001400044432000487A006442004F686D00442513
:10015000004D41494E3A200042454550200044455B
:100160004C54412000484F4C44200052454320004D
:10017000435245535420004D415820004D494E20D4
:100180000041564720004155544F2000524157200E
:10019000444154413A200052202D20746F67676C0F
:1001A00065207261772064617461206F7574707569
:1001B000740A0044202D2073656E642061207369E9
:1001C0006E676C652072656164696E670A00532012
:1001D0002D2073746F70206175746F73656E640A7F
:1001E000004F202D20312073616D706C652070658B
:1001F00072207365636F6E640A0046202D203520DF
:1002000073616D706C657320706572207365636FC8
:100210006E640A00417661696C61626C6520636F8F
:100220006D6D616E64733A0A004272796D656E207D
:100230003836372F38363920696E746572666163D7
:1002400065206361626C650A666F72206D6F72650E
:1002500020696E666F2C2073656520656D6265642C
:10026000626C6F672E65752F3F703D3437350A001D
:1002700011241FBECFE5D1E0DEBFCDBF10E0A0E668
:10028000B0E0EEEFF8E002C005900D92A236B107A3
:10029000D9F720E0A2E6B0E001C01D92A737B2076F
:1002A000E1F7D0D12AC3ACCE20E030E080E061E0BD
:1002B00070E0C09AE7ECF0E03197F1F700C0000081
:1002C000C098B29B08C0AB01022E02C0440F551F5C
:1002D0000A94E2F7842BE7ECF0E03197F1F700C0E5
:1002E00000002F5F3F4F2830310519F708950F9315
:1002F0001F93CF93DF93C09A8FE19EE40197F1F7AC
:1003000000C00000C098B29904C014C0815011F41C
:1003100016C08EEFEFE9FFE03197F1F700C0000063
:10032000B299F4CF07C0C0DF8993C017D107D9F7BE
:1003300081E005C0C2E6D0E006E710E0F4CFDF912F
:10034000CF911F910F910895E82FF0E0F595E79573
:10035000E15FFF4F099481E0089582E0089583E012
:10036000089584E0089585E0089586E0089587E083
:10037000089588E0089589E0089584E3089589E365
:1003800008958FE308958CE1089580EF08958FE03C
:10039000089580E00895FF920F931F93CF93DF930A
:1003A00080917600882399F08CE891E0DCD1C2E658
:1003B000D0E006E710E0899160E190E0E6D180E2CC
:1003C0009AD1C017D107B9F78AE095D135C180918C
:1003D000620080FF03C086E891E0C5D18091620091
:1003E00088231CF481E891E0BED18091620086FFF1
:1003F00003C08CE791E0B7D18091620085FF03C014
:1004000087E791E0B0D18091620082FF03C080E76E
:1004100091E0A9D18091620081FF03C08BE691E059
:10042000A2D18091620083FF03C085E691E09BD159
:100430008091640080FF03C08EE591E094D18091AB
:100440006B0080FF03C088E591E08DD181E591E0EC
:100450008AD18091630088230CF0E2C08DE24BD1F9
:10046000DFC0F80181918F016FDF805D44D1F80119
:10047000808180FF08C08D2FC43008F08F2D882325
:1004800011F08EE238D1CF5FC63059F780E233D118
:1004900080916F0086FF02C08EE62DD180917000A2
:1004A00083FF02C085E727D18091700082FF02C0E0
:1004B0008DE621D18091700086FF02C08BE61BD1B2
:1004C0008091700085FF02C08DE415D18091690094
:1004D00080FF02C086E50FD180916F00882314F45D
:1004E00081E409D180916F0085FF02C086E403D1C9
:1004F00080916F0084FF02C083E5FDD08091700081
:1005000088231CF48EE491E02ED18091700084FF4A
:1005100003C08AE491E027D18091700081FF03C07D
:1005200087E491E020D18091700080FF03C084E4D3
:1005300091E019D180E2DFD08091620084FF03C096
:1005400080E491E010D18091630080FF03C08CE3D0
:1005500091E009D186E391E006D180916A0084FFA1
:1005600065C08DE2C8D062C0F80181918F01ECDED8
:10057000805DC1D0F801808180FF08C08D2FC3301D
:1005800008F08F2D882311F08EE2B5D0CF5FC430F4
:1005900059F780E2B0D080916A0081FF02C08DE6F9
:1005A000AAD080916A0080FF02C085E7A4D0809124
:1005B0006F0081FF02C08BE69ED080916F0080FFAC
:1005C00002C08DE498D080916F0082FF03C083E366
:1005D00091E0C9D080916F0083FF02C086E58BD087
:1005E00080916A0082FF02C081E485D080916A0018
:1005F00083FF03C08BE291E0B6D080E27CD0809193
:100600006F0082FF03C087E291E0ADD08AE073D033
:1006100080916A00882384F48EE191E0A4D00CC01C
:1006200004E610E0C0E0D1E0F12C1BCF0BE610E0B7
:10063000C0E0D1E0F12C98CFDF91CF911F910F91C5
:10064000FF90089587B3836087BBBA982FEF84E348
:100650009CE0215080409040E1F700C0000042D073
:1006600089E292E080D084E192E07DD08AEF91E04F
:100670007AD081EE91E077D08EEC91E074D083EB6C
:1006800091E071D087E991E06ED0C1E0D0E012E056
:100690002EDE8823E9F3C19A7EDEC1988091600046
:1006A000813049F42FEF85E796E12150804090405A
:1006B000E1F700C0000090916000209160008C2F55
:1006C000923009F08D2F811106C08C2F233009F054
:1006D0008D2F8823E9F210936000809160008230B2
:1006E000E1F3D6CFBC9AC49ABB98AB9A8BB7806221
:1006F0008BBF78940895C498EFECF0E03197F1F750
:1007000000C00000C49A20E030E090E0AC01022E6E
:1007100002C0559547950A94E2F740FF02C0C49A7B
:1007200001C0C498EFECF0E03197F1F700C0000091
:100730002F5F3F4F2830310549F7C49A8FEC90E086
:100740000197F1F700C000000895CF93DF93EC010B
:100750008881882329F02196CEDF89918111FCCFF1
:10076000DF91CF910895CF93DF93EC01FC01849149
:10077000882341F0FE0121968491BDDFFE01849122
:100780008111F8CFDF91CF910895CF93DF9300D0FF
:1007900000D000D0CDB7DEB7462F50E0BE016F5F6E
:1007A0007F4F6ED0CE010196D0DF26960FB6F8941B
:1007B000DEBF0FBECDBFDF91CF9108951F920F9284
:1007C0000FB60F9211242F934F935F936F937F93E4
:1007D0008F939F93EF93FF93B39944C087E391E086
:1007E0000197F1F700C0000080E090E020E061E0B8
:1007F00070E0B39B08C0AB01082E02C0440F551F28
:100800000A94E2F7242BEFECF0E03197F1F700C007
:10081000000001968830910561F72F34A9F028F483
:100820002434D1F0263469F01AC0223519F023356A
:1008300079F015C09091760081E089278093760049
:100840000EC0109260000BC081E08093600007C072
:1008500082E08093600003C083E0809360008AB7E9
:1008600080648ABFFF91EF919F918F917F916F91EB
:100870005F914F912F910F900FBE0F901F90189581
:100880004532510518F4423008F004C0FB011082D3
:10089000CB010895BB274A3031F4992322F4BDE2FD
:1008A000909581959F4F01C0BB27FB015527AA2733
:1008B000880F991FAA1FA41710F0A41B83955051ED
:1008C000B9F7A05DAA3308F0A95DA193009779F765
:1008D000B111B1931192CB0100C0DC01FC01672F73
:1008E00071917723E1F7329704C07C916D93708307
:0E08F0006291AE17BF07C8F30895F894FFCFCA
:0208FE000100F7
:00000001FF
