S01700004272796D656E436F6E6E6563746F722E73726563F5
S11300008EC04EC3A5C0A4C0A3C0A2C0A1C0A0C03E
S11300109FC09EC09DC09CC09BC09AC099C01DC17A
S11300201EC11DC11CC11BC11AC119C118C117C1F0
S113003016C115C110C113C112C111C110C107C12C
S11300400EC10DC10CC10BC10AC109C108C107C150
S113005006C105C104C103C102C101C100C1FFC081
S1130060FEC0FDC0FCC0FBC0FAC0F9C0F8C0F7C0B8
S1130070F6C0F5C0F4C0F3C0F2C0F1C0F0C0EFC0E8
S1130080EEC0EDC0ECC0EBC0EAC0E9C0E8C0E7C018
S1130090E0C0E5C0E4C0E3C0E2C0CDC0CEC0DFC074
S11300A0DEC0DDC0DCC0DBC0DAC0D9C0D8C0D7C078
S11300B0D6C0D5C0D4C0D3C0D2C0D1C0D0C0B3C0C4
S11300C0CEC0CDC0CCC0BBC0CAC0C9C0C8C0C7C0E8
S11300D0C6C0C5C0C4C0C3C0C2C0C1C0C2C0BFC006
S11300E0BEC0BDC0BCC0BBC0BAC0B9C0B8C0B7C038
S11300F0B6C0B5C0B4C0B3C098C0B1C0B0C0AFC082
S1130100AEC097C0ACC0ABC0AAC0A9C0A8C0A7C0AD
S11301109CC0A5C0A4C08BC0A2C095C092C011242D
S11301201FBECFEDCDBF10E0A0E6B0E0E2E5F7E002
S113013002C005900D92AC3CB107D9F720E0ACECBD
S1130140B0E001C01D92AD3DB207E1F72CD2FFC271
S113015057CF20E030E080E061E070E0C498EBE24B
S1130160F1E03197F1F700C00000B39B08C0AB0188
S1130170022E02C0440F551F0A94E2F7842BC49A3E
S1130180EBE2F1E03197F1F700C000002F5F3F4F41
S11301902830310519F708950F931F93CF93DF93F8
S11301A0C4988FE19EE40197F1F700C00000C49A5F
S11301B08EEF9FEFA1E0B0E004C00197A109B1095F
S11301C089F0B39B11C0F9CFC4DF8993C017D1075D
S11301D0D9F7BFDFBEDFBDDFBCDFBBDF81E017C007
S11301E08FEF15C0B399FCCFC4988BE291E00197CF
S11301F0F1F700C00000C49A8BE291E00197F1F797
S113020000C00000CCECD0E00CED10E0DDCFDF91BD
S1130210CF911F910F910895E82FF0E0F595E795A0
S1130220E15FFF4F099481E0089582E0089583E03F
S1130230089584E0089585E0089586E0089587E0B0
S1130240089588E0089589E0089584E3089589E392
S113025008958FE308958CE1089580EF08958FE069
S1130260089580E00895FF920F931F93CF93DF9337
S11302708091CC0080FF05C061E670E08CED90E0D9
S1130280FBD18091CC0088232CF467E670E08CEDE0
S113029090E0F2D18091CC0086FF05C06CE670E05E
S11302A08CED90E0E9D18091CC0085FF05C061E739
S11302B070E08CED90E0E0D18091CC0082FF05C02D
S11302C066E770E08CED90E0D7D18091CC0081FF9F
S11302D005C06DE770E08CED90E0CED18091CC004C
S11302E083FF05C062E870E08CED90E0C5D1809199
S11302F0CE0080FF05C068E870E08CED90E0BCD1D2
S11303008091D50080FF05C06FE870E08CED90E02F
S1130310B3D165E970E08CED90E0AED18091CD0071
S113032088230CF02EC16DE28CED90E07CD129C1C4
S1130330F80181918F0170DF60E3680F8CED90E02C
S113034072D1F801808180FF0AC08D2FC43008F07B
S11303508F2D882321F06EE28CED90E064D1CF5F85
S1130360C63031F760E28CED90E05DD18091D90028
S113037086FF04C06EE68CED90E055D18091DA00E2
S113038083FF04C065E78CED90E04DD18091DA00E5
S113039082FF04C06DE68CED90E045D18091DA00D7
S11303A086FF04C06BE68CED90E03DD18091DA00CD
S11303B085FF04C06DE48CED90E035D18091D300CD
S11303C080FF04C066E58CED90E02DD18091D900CA
S11303D0882324F461E48CED90E025D18091D90048
S11303E085FF04C066E48CED90E01DD18091D900B6
S11303F084FF04C063E58CED90E015D18091DA00B0
S113040088232CF46CE970E08CED90E035D1809178
S1130410DA0084FF05C06FE970E08CED90E02CD128
S11304208091DA0081FF05C063EA70E08CED90E012
S113043023D18091DA0080FF05C066EA70E08CED7C
S113044090E01AD160E28CED90E0EDD08091CC0088
S113045084FF05C069EA70E08CED90E00DD18091D5
S1130460CD0080FF05C06DEA70E08CED90E004D112
S113047061EB70E08CED90E0FFD08091D40084FFBC
S113048086C06DE28CED90E0CED081C0F801819100
S11304908F01C2DE60E3680F8CED90E0C4D0F801F8
S11304A0808180FF0AC08D2FC33008F08F2D8823F0
S11304B021F06EE28CED90E0B6D0CF5FC43031F71E
S11304C060E28CED90E0AFD08091D40081FF04C055
S11304D06DE68CED90E0A7D08091D40080FF04C03D
S11304E065E78CED90E09FD08091D90081FF04C036
S11304F06BE68CED90E097D08091D90080FF04C02A
S11305006DE48CED90E08FD08091D90082FF05C01E
S113051066EA70E08CED90E0AFD08091D90083FF63
S113052004C066E58CED90E07ED08091D40082FF1B
S113053004C061E48CED90E076D08091D40083FF18
S113054005C067EB70E08CED90E096D060E28CED36
S113055090E069D08091D90082FF05C06FEB70E014
S11305608CED90E089D06AE08CED90E05CD08091D5
S1130570D400882394F462EC70E08CED90E07CD09D
S11305800CC00EEC10E0C0E0D1E0F12CD1CE05EDB2
S113059010E0C0E0D1E0F12C79CFDF91CF911F9131
S11305A00F91FF90089587B3816187BBC49ABA986D
S11305B08CED90E02DD0C1E0D0E012E0C09AECDDEB
S11305C08130E1F750DEC09880916000813049F4B9
S11305D02FEF85E796E1215080409040E1F700C07D
S11305E0000020916000909160008C2F933009F0FE
S11305F08D2F811106C08C2F223009F08D2F882376
S1130600E9F210936000809160008230E1F3D6CF6C
S1130610B99AC19ABA9885B7826085BF8BB780644E
S11306208BBF78940895C1988FEC90E00197F1F70F
S113063000C00000C19A80E090E070E09B01082EA9
S113064002C0359527950A94E2F720FF02C0C19AAB
S113065001C0C198EFECF0E03197F1F700C0000061
S113066001968830910551F7C19A8FEC90E001977B
S1130670F1F700C0000008950F931F93CF93DF9309
S1130680EB016881662339F08C012196C801CBDF28
S113069069916111FBCFDF91CF911F910F91089563
S11306A01F920F920FB60F9211242F934F935F93C3
S11306B06F937F938F939F93EF93FF9387E391E0DF
S11306C00197F1F700C0000080E090E020E061E0D5
S11306D070E0B29B08C0AB01082E02C0440F551F46
S11306E00A94E2F7242BEFECF0E03197F1F700C025
S11306F0000001968830910561F7223C61F018F4FE
S1130700213C31F013C0233C51F0243C61F00EC075
S1130710109260000BC081E08093600007C082E00B
S11307208093600003C083E0809360008AB7806494
S11307308ABFFF91EF919F918F917F916F915F910C
S11307404F912F910F900FBE0F901F901895F89412
S1050750FFCFD5
S1130752014155544F200041564720004D494E2037
S1130762004D415820004352455354200052454302
S11307722000484F4C44200044454C544120004240
S113078245455020004D41494E3A20004425004F32
S1130792686D00644200487A0044432000414320CB
S11307A2004155583A200025342D32306D41004124
S10F07B243004C4F57204241540A000001
S9030000FC
